:020000040800F2
:100000000050002099270008A5190008A71900082A
:10001000A9190008AB190008AD190008000000007C
:10002000000000000000000000000000AF19000800
:10003000B119000800000000B3190008B519000844
:10004000E1270008E1270008E1270008E127000870
:10005000E1270008E1270008E1270008E127000860
:10006000E1270008E1270008E1270008E127000850
:10007000E1270008E1270008E1270008E127000840
:10008000E1270008E1270008E1270008E127000830
:10009000E1270008E1270008E1270008E127000820
:1000A000E1270008E1270008E1270008E127000810
:1000B000E1270008E1270008E1270008E127000800
:1000C000E1270008E1270008E1270008E1270008F0
:1000D000E1270008E1270008E1270008E1270008E0
:1000E000E1270008E1270008E127000800000000E0
:1000F0000000000000000000000000000000000000
:0C01000000000000000000005FF808F1A3
:1001100010B5054C237833B9044B13B10448AFF341
:1001200000800123237010BDE401002000000000C6
:100130009C61000808B5034B1BB103490348AFF3AA
:10014000008008BD00000000E80100209C6100085C
:10015000034613F8012B002AFBD1181A0138704707
:1001600081F0004102E000BF83F0004330B54FEA68
:1001700041044FEA430594EA050F08BF90EA020FD5
:100180001FBF54EA000C55EA020C7FEA645C7FEA68
:10019000655C00F0E2804FEA5454D4EB5555B8BF8B
:1001A0006D420CDD2C4480EA020281EA030382EAFC
:1001B000000083EA010180EA020281EA0303362D8E
:1001C00088BF30BD11F0004F4FEA01314FF4801C61
:1001D0004CEA113102D0404261EB410113F0004F73
:1001E0004FEA03334CEA133302D0524263EB43032A
:1001F00094EA050F00F0A780A4F10104D5F1200EC8
:100200000DDB02FA0EFC22FA05F2801841F1000122
:1002100003FA0EF2801843FA05F359410EE0A5F1F6
:1002200020050EF1200E012A03FA0EFC28BF4CF027
:10023000020C43FA05F3C01851EBE37101F00045DD
:1002400007D54FF0000EDCF1000C7EEB00006EEBEA
:100250000101B1F5801F1BD3B1F5001F0CD3490874
:100260005FEA30004FEA3C0C04F101044FEA4452CB
:1002700012F5800F80F09A80BCF1004F08BF5FEA52
:10028000500C50F1000041EB045141EA050130BD32
:100290005FEA4C0C404141EB0101013C28BFB1F544
:1002A000801FE9D291F0000F04BF01460020B1FA8F
:1002B00081F308BF2033A3F10B03B3F120020CDA62
:1002C0000C3208DD02F1140CC2F10C0201FA0CF040
:1002D00021FA02F10CE002F11402D8BFC2F1200CA5
:1002E00001FA02F120FA0CFCDCBF41EA0C0190405B
:1002F000E41AA2BF01EB0451294330BD6FEA0404A4
:100300001F3C1CDA0C340EDC04F11404C4F120028E
:1003100020FA04F001FA02F340EA030021FA04F3A0
:1003200045EA030130BDC4F10C04C4F1200220FAF7
:1003300002F001FA04F340EA0300294630BD21FA35
:1003400004F0294630BD94F0000F83F4801306BFFB
:1003500081F480110134013D4EE77FEA645C18BFEF
:100360007FEA655C29D094EA050F08BF90EA020F86
:1003700005D054EA000C04BF1946104630BD91EA7E
:10038000030F1EBF0021002030BD5FEA545C05D181
:100390004000494128BF41F0004130BD14F58004C0
:1003A0003CBF01F5801130BD01F0004545F0FE4134
:1003B00041F470014FF0000030BD7FEA645C1ABF69
:1003C000194610467FEA655C1CBF0B46024650EAA0
:1003D000013406BF52EA033591EA030F41F40021CC
:1003E00030BD00BF90F0000F04BF0021704730B552
:1003F0004FF4806404F132044FF000054FF0000127
:1004000050E700BF90F0000F04BF0021704730B5E7
:100410004FF4806404F1320410F0004548BF4042BC
:100420004FF000013EE700BF42004FEAE2014FEA11
:1004300031014FEA02701FBF12F07F4393F07F4FEC
:1004400081F06051704732F07F4208BF704793F0EF
:100450007F4F04BF41F40021704730B54FF4607402
:1004600001F0004521F000411CE700BF50EA010205
:1004700008BF704730B54FF000050AE050EA0102AE
:1004800008BF704730B511F0004502D5404261EB1E
:1004900041014FF4806404F132045FEA915C3FF45F
:1004A000D8AE4FF003025FEADC0C18BF03325FEAFC
:1004B000DC0C18BF033202EBDC02C2F1200300FAAD
:1004C00003FC20FA02F001FA03FE40EA0E0021FAD2
:1004D00002F11444BDE600BF70B54FF0FF0C4CF4C0
:1004E000E06C1CEA11541DBF1CEA135594EA0C0F72
:1004F00095EA0C0F00F0DEF82C4481EA030621EAAD
:100500004C5123EA4C5350EA013518BF52EA0335E7
:1005100041F4801143F4801338D0A0FB02CE4FF099
:100520000005E1FB02E506F00042E0FB03E54FF0C9
:100530000006E1FB03569CF0000F18BF4EF0010EC1
:10054000A4F1FF04B6F5007F64F5407404D25FEABD
:100550004E0E6D4146EB060642EAC62141EA555170
:100560004FEAC52040EA5E504FEACE2EB4F1FD0CB2
:1005700088BFBCF5E06F1ED8BEF1004F08BF5FEA30
:10058000500E50F1000041EB045170BD06F00046E2
:1005900046EA010140EA020081EA0301B4EB5C048F
:1005A000C2BFD4EB0C0541EA045170BD41F4801187
:1005B0004FF0000E013C00F3AB8014F1360FDEBFAC
:1005C000002001F0004170BDC4F10004203C35DA88
:1005D0000C341BDC04F11404C4F1200500FA05F30B
:1005E00020FA04F001FA05F240EA020001F00042AC
:1005F00021F0004110EBD37021FA04F642EB060122
:100600005EEA430E08BF20EAD37070BDC4F10C044B
:10061000C4F1200500FA04F320FA05F001FA04F20F
:1006200040EA020001F0004110EBD37041F10001FB
:100630005EEA430E08BF20EAD37070BDC4F1200506
:1006400000FA05F24EEA020E20FA04F301FA05F26E
:1006500043EA020321FA04F001F0004121FA04F216
:1006600020EA020000EBD3705EEA430E08BF20EAE6
:10067000D37070BD94F0000F0FD101F00046400020
:1006800041EB010111F4801F08BF013CF7D041EAA2
:10069000060195F0000F18BF704703F000465200A6
:1006A00043EB030313F4801F08BF013DF7D043EA77
:1006B0000603704794EA0C0F0CEA135518BF95EA2D
:1006C0000C0F0CD050EA410618BF52EA4306D1D1B4
:1006D00081EA030101F000414FF0000070BD50EAD3
:1006E000410606BF1046194652EA430619D094EA5D
:1006F0000C0F02D150EA013613D195EA0C0F05D147
:1007000052EA03361CBF104619460AD181EA03019A
:1007100001F0004141F0FE4141F470014FF0000052
:1007200070BD41F0FE4141F4780170BD70B54FF0ED
:10073000FF0C4CF4E06C1CEA11541DBF1CEA13556D
:1007400094EA0C0F95EA0C0F00F0A7F8A4EB05044F
:1007500081EA030E52EA03354FEA013100F0888046
:100760004FEA03334FF0805545EA131343EA12630F
:100770004FEA022245EA111545EA10654FEA0026C4
:100780000EF000419D4208BF964244F1FD0404F57D
:10079000407402D25B084FEA3202B61A65EB0305D9
:1007A0005B084FEA32024FF480104FF4002CB6EB96
:1007B000020E75EB030E22BFB61A754640EA0C0016
:1007C0005B084FEA3202B6EB020E75EB030E22BF56
:1007D000B61A754640EA5C005B084FEA3202B6EB97
:1007E000020E75EB030E22BFB61A754640EA9C0056
:1007F0005B084FEA3202B6EB020E75EB030E22BF26
:10080000B61A754640EADC0055EA060E18D04FEAE3
:10081000051545EA16754FEA06164FEAC30343EA83
:1008200052734FEAC2025FEA1C1CC0D111F4801F50
:100830000BD141EA00014FF000004FF0004CB6E749
:1008400011F4801F04BF01430020B4F1FD0C88BFE8
:10085000BCF5E06F3FF6AFAEB5EB030C04BFB6EBF3
:10086000020C5FEA500C50F1000041EB045170BDE6
:100870000EF0004E4EEA113114EB5C04C2BFD4EB13
:100880000C0541EA045170BD41F480114FF0000E97
:10089000013C90E645EA060E8DE60CEA135594EA13
:1008A0000C0F08BF95EA0C0F3FF43BAF94EA0C0F16
:1008B0000AD150EA01347FF434AF95EA0C0F7FF48B
:1008C00025AF104619462CE795EA0C0F06D152EADF
:1008D00003353FF4FDAE1046194622E750EA4106C3
:1008E00018BF52EA43067FF4C5AE50EA41047FF4D4
:1008F0000DAF52EA43057FF4EBAE12E74FF0FF3C39
:1009000006E000BF4FF0010C02E000BF4FF0010C09
:100910004DF804CD4FEA410C7FEA6C5C4FEA430C82
:1009200018BF7FEA6C5C1BD001B050EA410C0CBFD1
:1009300052EA430C91EA030F02BF90EA020F002033
:10094000704710F1000F91EA030F58BF994208BF9A
:1009500090422CBFD8176FEAE37040F00100704757
:100960004FEA410C7FEA6C5C02D150EA013C07D1AE
:100970004FEA430C7FEA6C5CD6D152EA033CD3D0F9
:100980005DF8040B704700BF8446104662468C46F3
:100990001946634600E000BF01B5FFF7B7FF002826
:1009A00048BF10F1000F01BD4DF808EDFFF7F4FF4F
:1009B0000CBF012000205DF808FB00BF4DF808EDDA
:1009C000FFF7EAFF34BF012000205DF808FB00BFFD
:1009D0004DF808EDFFF7E0FF94BF012000205DF81F
:1009E00008FB00BF4DF808EDFFF7CEFF94BF0120D4
:1009F00000205DF808FB00BF4DF808EDFFF7C4FFCD
:100A000034BF012000205DF808FB00BF4FEA410C15
:100A10007FEA6C5C02D150EA013C0AD14FEA430CF8
:100A20007FEA6C5C02D152EA033C02D14FF0000035
:100A300070474FF0010070474FEA410212F5001273
:100A400015D211D56FF47873B3EB625212D94FEA15
:100A5000C12343F0004343EA505311F0004F23FAFF
:100A600002F018BF404270474FF00000704750EA54
:100A7000013005D111F0004008BF6FF00040704711
:100A80004FF00000704700BF03685A004CBF43F0AE
:100A9000004323F000431844704700BF2DE9F8439A
:100AA00039B34F1E044615463E464FF0000808EB8A
:100AB000060101EBD171491004EBC1094846FFF76B
:100AC000E3FF0346C80008308F4220440BD0AB42FE
:100AD0000BD8FFF7D9FF0138A84201F10108E6D38E
:100AE0004846BDE8F883AB42FAD9884501D04E1E8E
:100AF000DDE74FF000094846BDE8F883012807D03C
:100B0000022807D0044B00280CBF1846002070476D
:100B10000248704702487047ED110008F1110008C3
:100B2000F511000830B5244B044683B08D1E3BB34D
:100B3000284601A9AFF30080E8B101992A46FFF7E2
:100B4000ADFF0146B8B1FFF79FFF4B68A064012BD2
:100B50002ED0002B27DB081DFFF796FF0023C4E9EA
:100B600013030368002B12DBFFF78EFF0346002000
:100B7000236103B030BD00230920236103B030BDE1
:100B80000E4B0F491846C91AC9100191D6E7C3F395
:100B90000360FFF7B3FF0028034614BF00200920BD
:100BA000236103B030BD0123081DC4E91303D8E756
:100BB000002305202361DCE70000000070680008C6
:100BC000286A0008036810B5DA07044606D49B07B4
:100BD00000F1480009D500F05DFC2368590709D5EC
:100BE0001A070ED5DB0613D510BD00F04BFC2368A9
:100BF0005907F5D404F1D00000F054FC23681A071B
:100C0000F0D404F5A87000F055FC2368DB06EBD4A3
:100C100004F5E870BDE8104000F090BC0920704772
:100C20000346006800B11844704700BF704700BF1A
:100C300070B504460E462046316CFFF773FF05463B
:100C400098B9D6F840C03246214601202369C4F83D
:100C500014C098470828EED0072806D12846316CE2
:100C6000FFF7E4FF301D00F001FC04F02BFF00BF94
:100C70002DE9F0474FF0000AADF5727D0DF10C0E35
:100C800001F1040CC768D0F8188006461446BCE889
:100C90000F00AEE80F00BCE80F00AEE80F00BCE8A4
:100CA0000F00AEE80F009CE80F0002AD8EE80F00C9
:100CB000C5F800A021E02B6C4FF4F0722946736157
:100CC0007AA803F057FE3146504633697AAA98470E
:100CD000889C82466C643346324649460120CDE901
:100CE0000058B8470446F0B94FF4F07228467AA984
:100CF00003F040FEBAF1080F1BD13046296CFFF714
:100D000011FF04F109095FFA89FA04460028D2D0DC
:100D1000A96B3346696432460120CDE900584AF098
:100D20001001B84700B1092420460DF5727DBDE8D9
:100D3000F087BAF1070FF6D12046296CFFF776FF4E
:100D400003A800F093FB00BF406C7047F0B54FF074
:100D5000FF37CB6BF9B00B6401AC01F1040C0E460C
:100D60000546BCE80F000FC4BCE80F000FC4BCE888
:100D70000F000FC49CE80F0084E80F00009706E006
:100D80006A4629462B6998470828044608D1284610
:100D90001099FFF7C7FE0028F2D0092079B0F0BD06
:100DA0006846FFF70FFF062CF7D131462846FFF7BC
:100DB0003FFF00BF10B414468461DC6BC1600022A9
:100DC0001C64194610BC53E770B54369C6680B64D0
:100DD000AEB90A46036904460D460146022098470B
:100DE000072805D008280FD129462046FFF720FF05
:100DF0003046296CFFF71AFF281D00F037FB01224F
:100E0000FFF736FF04F05EFE04F05CFEC2682AB114
:100E1000D1F83CC00022C1F840C029E796E700BFE6
:100E2000704700BF836801460BB101201847704727
:100E3000012912D009D873B90F2A0CD800EB82000F
:100E400042681846009B1A6070470339012994BF15
:100E5000012002207047022070470846704700BFFB
:100E6000002300B585B00A4603A900911946FFF793
:100E7000DFFF039805B05DF804FB00BF012912D025
:100E800009D873B90F2A0CD8009900EB82020968BF
:100E90001846516070470339012994BF0120022090
:100EA0007047022070470846704700BF002310B506
:100EB00084B003AC039200940A461946FFF7DEFFA4
:100EC00004B010BD70B54FF0FF36D36BADF50E7D9D
:100ED00013640DF15C0E02F1040C05460C46BCE8EF
:100EE0000F00AEE80F00BCE80F00AEE80F00BCE852
:100EF0000F00AEE80F009CE80F008EE80F0016967A
:100F000012E00C2116A86A46FFF7D0FF214616A86A
:100F1000A84778B969460820049B16AA984705286F
:100F2000064608D0092805D068462699FFF7FAFD3D
:100F30000028E6D0092616A8FFF744FE30460DF536
:100F40000E7D70BD2DE9F04F1E46CC6C89B054F873
:100F5000043B0D46174600F003080694002E79D096
:100F600002228DF81C201A0C8DF81D201B04D2B211
:100F7000059304EB82042B6DB8F1020F08BFAC6B34
:100F800013F001030CD0384605A900F071FB18B925
:100F9000082009B0BDE8F08F092009B0BDE8F08F46
:100FA000D4F800A0BAF1000FEDD0019300F00803CF
:100FB0000293022E4AD0B4F800A0B4F80290043490
:100FC000AA6C0F21384629F0010B9344FFF748FF24
:100FD000834539D82AF001025A44824294BF002046
:100FE00001204FEA490303F002030AF0010A43EA31
:100FF0000A03012B49D0022B32D0002BCCD1B8F1FF
:10100000000F02D0002840F0CE800434D4F800A0B5
:10101000BAF1000FCDD1384605A900F029FB002810
:10102000BAD1019B002BB3D00F213846FFF718FF30
:101030000E2102463846FFF739FF38460F216A4A2B
:10104000FFF734FF0720A8E70020CAE7D4F8049090
:101050000834B5E71B0205930323ADF81C308AE77B
:10106000236823F0004BB8F1000F45D128B1029A54
:10107000002A5CD0BBF1000F74D0002B00DA0434DE
:101080000BF1010B04EB8B04C0E7B8F1000F19D191
:10109000B0B163682268991C4FEAD2723FF47CAF0A
:1010A00005F158010133049100F09180201DFFF7F4
:1010B000B7FD04AB01462846AFF3008000285CD1A1
:1010C0000834A3E70D213846D5F82090FFF7C8FE75
:1010D0008145F5D1AB6A9C42F2D12046FFF7D4FCA2
:1010E0000F2102463846FFF7E1FE38462A46002126
:1010F000FFF7DCFE072050E70D213846D5F8209099
:10110000FFF7AEFE814501D02368B6E7AB6A9C428B
:10111000FAD104230022C5E90B23E318C5F828B04F
:101120006B632368002B5ADB01230193A8E705F1C9
:101130005803CDF80C809146B04604F1040A1E46CF
:101140000EE050460496FFF76BFD0022014604AB0B
:10115000284609F101090AF1040AAFF30080E8B951
:10116000D945EED10D213846FFF77AFE0346049AA1
:101170000620C5E909242B620FE781460D21384678
:10118000FFF76EFEB9F1020F286225D12B46049AB3
:1011900043F82C2F6B620620AC62FEE646462368BD
:1011A000DDF80C8069E72046FFF76EFC0246043448
:1011B000AC6328461446AFF3008000283FF4ECAE41
:1011C000384622460F21FFF771FE0720E5E60D2184
:1011D0003846FFF745FE2862049B6B62DBE70BF1A4
:1011E000010004EB800079E7000000000023A9E67D
:1011F0000123A7E60223A5E62DE9F043064615469E
:101200001C46C3B0042900F2B880DFE801F09C5608
:10121000B62D0300002C40F0B080102A00F2AD8003
:101220000368D80600F1F18020AF384600F090F94D
:10123000012438460023B16B04FA03F22A4203F179
:10124000010305D00A4652F804CB1146C0F800C08D
:10125000042B00F10400EFD13846B16300F06EF9C1
:10126000002043B0BDE8F083032C40F0868094B2A8
:1012700004EB1243102B4FEA12457ED803681F0778
:1012800000F1CB8020AF384600F036F9B26B07EBA7
:10129000C50154B10B4601EBC401D01AE4001D583E
:1012A00043F8045B8B42FAD122443846B26300F023
:1012B00001F9002043B0BDE8F083012C4FEA124849
:1012C00095B256D0052C58D108EB0509B9F1200F7D
:1012D00053D8B8F10F0F73D9A946002D40F0848080
:1012E000B36B65B320AF4FF0000907EBC807043FAD
:1012F00003EBC50553F8041BAB4247F8041FF9D1B3
:10130000B9F1000F0FD06F464146102938BF1021A8
:1013100007EBC101843903EBC90553F8040BAB4259
:1013200041F8040FF9D1012C7FD0B8F10F0FB5634C
:1013300042D9B9F1000F02D0684600F0B3F800209E
:1013400043B0BDE8F083C4B923460124826B371D46
:10135000A8B204FA03F101421CBF52F8041B47F87B
:1013600023100133102BF4D115F40050E7D1B263F0
:1013700004E008EB0503102B03D9022043B0BDE8BD
:10138000F083B8F10F0FF8D83368DA0706D5304686
:1013900023F0030340F8483B00F078F820AF3846CC
:1013A00000F074F8B36B002D9DD11D46043538460E
:1013B000B56300F067F8C2E720A800F06BF8B8E763
:1013C000B9F1100F3FD9A9F110093368D90708D531
:1013D000304623F0010343F0020340F8483B00F09D
:1013E0005DF8B9F1000F31D033685A071FD4B8F156
:1013F0000F0F24D96F46C8F11005384600F056F893
:10140000002DB36B80DD20AF6FE723F01003336056
:1014100006F5E87000F09CF806E723F00803036087
:1014200000F5A87000F068F82CE720AFBEE7304662
:1014300023F0040340F8D03B00F038F8D7E720A8A9
:1014400000F02CF8D6E74FF00009BEE7B8F10F0F17
:101450003FF646AF20AF384600F020F8B36B002DC2
:101460007FF441AF384600F015F868E700F1340129
:1014700091E838009C46A6464CF8045D90E8FF0FC2
:10148000E54600BD90EC210B704700BF80EC210BBE
:10149000704700BF90EC200B704700BF80EC200B22
:1014A000704700BFD0EC200B704700BFC0EC200B92
:1014B000704700BFF0EC0201F0EC0211F0EC0221E9
:1014C000F0EC0231F0EC0241F0EC0251F0EC026180
:1014D000F0EC0271F0EC0281F0EC0291F0EC02A170
:1014E000F0EC02B1F0EC02C1F0EC02D1F0EC02E160
:1014F000F0EC02F1704700BFE0EC0201E0EC0211F9
:10150000E0EC0221E0EC0231E0EC0241E0EC0251BF
:10151000E0EC0261E0EC0271E0EC0281E0EC0291AF
:10152000E0EC02A1E0EC02B1E0EC02C1E0EC02D19F
:10153000E0EC02E1E0EC02F1704700BFB0FC018199
:10154000B0FC0191B0FC01A1B0FC01B1704700BF3B
:10155000A0FC0181A0FC0191A0FC01A1A0FC01B1B3
:10156000704700BFEC4600B52DE900502DE9FF1F84
:101570004FF000032DE90C0001A9FFF7E7FBDDF8B0
:1015800040E012B0704700BFEC4600B52DE90050B6
:101590002DE9FF1F4FF000032DE90C0001A9FFF713
:1015A00013FCDDF840E012B0704700BFEC4600B518
:1015B0002DE900502DE9FF1F4FF000032DE90C002D
:1015C00001A9FFF723FCDDF840E012B0704700BF2F
:1015D000EC4600B52DE900502DE9FF1F4FF0000348
:1015E0002DE90C0001ABFFF7E5FBDDF840E012B0A0
:1015F000704700BFEC4600B52DE900502DE9FF1FF4
:101600004FF000032DE90C0001AAFFF75BFCDDF8A9
:1016100040E012B0704700BF027A03467AB9427ABE
:10162000A2B14FF0030C4168013A427208680A1DEA
:101630005A60020283F808C0000E1A607047006802
:10164000013A1A7202021A60000E7047B020704709
:10165000002300B585B003A900910C221946FFF7BD
:10166000E7FB039805B05DF804FB00BFF0E700BF9F
:101670002DE9F0434FF0000805460E4685B0304690
:10168000FFF7CAFFB028044600F0BA80070620D54D
:1016900000F0F003802B4DD0902B36D0A02B60D0E3
:1016A000B02B73D0C02B00F08A8000F0F803D02B51
:1016B0000BD100F00702013205230121284642F434
:1016C0000022FFF799FD0028D9D0092005B0BDE818
:1016D000F0838300DBB21F1D00230DF10C091946B6
:1016E0000D222846CDF80090FFF7A2FB039B600671
:1016F0004CBFDF1BFF1800230D2228461946CDF8EA
:1017000000900397FFF7BAFBB9E700F00D030D2B2C
:10171000DBD0002303AF194600F00F0200972846E4
:10172000FFF786FB00230D22284619460097FFF796
:10173000A5FBA4E73046FFF76FFF24022043B0F576
:10174000004FC2D00023040119462846A2B2FFF779
:1017500053FD0028B9D114F4004F18BF4FF0010811
:101760008DE7C3434FF47F6203F007031A41002360
:10177000010702F47F6248BF42F4804228461946BE
:10178000FFF73AFD00283FF47AAF9EE7B1283CD03E
:10179000B22800F0B080B3284AD000F0FC03B42B8C
:1017A00093D0012300F007021A442846194642F458
:1017B0000022FFF721FD00283FF461AF85E7C6282E
:1017C0004FD0C72861D000F0F803C02B70D0C828D4
:1017D0007CD0C9287FF479AF3046FFF71DFF052381
:1017E000024601212846140302F00F0204F470247B
:1017F0000A442243FFF700FD00283FF440AF64E7AE
:10180000B8F1000F1CD0002060E73046FFF704FF5E
:10181000024600283FF459AF10F0F0037FF455AFB3
:1018200019462846FFF7E8FC00283FF428AF4CE7AC
:101830003046FFF7F1FE0123024619462846D2E75B
:1018400003AC43460E22414628460094FFF7F0FAC7
:1018500043460F22284641460094FFF70FFB4046BF
:1018600034E73046FFF7D8FE02460323140302F0A4
:101870000F0204F470240132284619462243FFF770
:10188000BBFC00283FF4FBAE1FE73046FFF7C4FE69
:10189000024600283FF419AF10F0F0037FF415AFB3
:1018A00004212846FFF7A8FC00283FF4E8AE0CE727
:1018B000032300F00F0201322846194642F4202289
:1018C000FFF79AFC00283FF4DAAEFEE63046FFF759
:1018D000A3FE0246012102F0F00402F00F021034D0
:1018E0000A440523284642EA0432FFF785FC002813
:1018F0003FF4C5AEE9E600230DF10C090D221946AF
:101900002846CDF80090FFF793FA3046FFF784FEA3
:1019100002064FF002040CD5039B00F07F00A040AC
:10192000184403903046FFF777FE030604F10704DE
:10193000F2D4039B00F07F02A24003F501731A4426
:101940000023039228460D221946CDF80090FFF798
:1019500095FA94E60B464FF0030C00B5C26C18469E
:10196000536885B00832029201A91A0E1B028DF845
:101970000CC001938DF80D20FFF77AFE05B05DF8DD
:1019800004FB00BF08B5FFF771FE806C08BD00BF07
:1019900008B5FFF76BFEC06CC379023300EB830020
:1019A00008BD00BFFEE7FEE7FEE7FEE7FEE7704783
:1019B0007047704708B500F027FA08BD82B00E4B9B
:1019C0009A6942F001029A619A6902F0010200925A
:1019D000009ADA6942F08052DA61DB6903F08053E1
:1019E0000193019B054A536823F0E06343F00073C1
:1019F000536002B0704700BF001002400000014079
:101A000010B586B0002302930393049305930268F4
:101A1000174B9A4201D006B010BD03F558439A699E
:101A200042F480429A619A6902F480420092009ADC
:101A30009A6942F004029A619B6903F004030193DE
:101A4000019B4FF400730293022303930323059336
:101A5000084C02A9204600F01BFD4FF4806302935E
:101A600000230393049302A9204600F011FDD2E75E
:101A7000003801400008014010B5044602681369AF
:101A800023F44053C1680B43136183680269134315
:101A900042691A430168CB6823F4B05323F00C0366
:101AA0001343CB600268536923F4407381690B438D
:101AB00053610268134B9A4220D000F0C9FC0246E1
:101AC00002EB820202EB820263689B00B2FBF3F23C
:101AD0000D48A0FB02314909642303FB11231B01BC
:101AE0003233A0FB03235B0903F0F00202EB011287
:101AF00003F00F03216813448B6010BD00F0B8FCA5
:101B00000246DDE7003801401F85EB512DE9F8431F
:101B100005460F4616469946DDF8208006E04FF050
:101B2000010C664527D1B8F1FF3F07D12C68246826
:101B300037EA0403F3D04FF0000CF2E7B8F1000FDE
:101B400005D000F06DF9A0EB09004045EED92A68F8
:101B5000D36823F4D073D3602A68536923F0010358
:101B60005361202385F83D3085F83E30002385F809
:101B70003C30032000E00020BDE8F88358B310B5E6
:101B8000044690F83D300BB3242384F83D3022689E
:101B9000D36823F40053D3602046FFF76DFF22681B
:101BA000136923F4904313612268536923F02A03D5
:101BB00053612268D36843F40053D360002020644B
:101BC000202384F83D3084F83E3010BD80F83C304E
:101BD000FFF716FFD8E7012070472DE9F04182B0EA
:101BE0001E4690F83D30DBB2202B54D104460D4602
:101BF0009046002953D0002A53D090F83C30012B56
:101C000051D0012380F83C3000230364212380F865
:101C10003D3000F005F90746A4F82480A4F826809A
:101C2000A368B3F5805F05D04FF00008002384F867
:101C30003C3012E0236913B14FF00008F6E7A846E4
:101C40000025F3E738F8023B2268C3F3080353602A
:101C5000E28C92B2013A92B2E284E38C9BB273B10D
:101C600000963B46002280212046FFF74FFFE0B957
:101C7000002DE7D015F8012B23685A60E8E700969D
:101C80003B46002240212046FFF740FF78B9202341
:101C900084F83D3000E0022002B0BDE8F081012070
:101CA000FAE70120F8E70220F6E70320F4E7032033
:101CB000F2E72DE9F04182B01E4690F83E30DBB2EB
:101CC000202B5CD104460D46904600295BD0002AAB
:101CD0005BD090F83C30012B59D0012380F83C3088
:101CE00000230364222280F83E20036300F098F86A
:101CF0000746A4F82C80A4F82E80A368B3F5805F73
:101D000005D04FF00008002384F83C3017E0236929
:101D100013B14FF00008F6E7A8460025F3E7236863
:101D20005B68C3F3080328F8023B03E023685B68A1
:101D30002B700135E28D92B2013A92B2E285E38DC9
:101D40009BB2BBB100963B46002220212046FFF704
:101D5000DDFEF0B9002DE2D0A368B3F5805FE5D0D9
:101D600013B92369002BE1D023685B6803F07F037C
:101D70002B70DEE7202384F83E30002000E00220B4
:101D800002B0BDE8F0810120FAE70120F8E7022067
:101D9000F6E70320F4E7000010B504460E4B187870
:101DA0004FF47A73B3FBF0F30C4A1068B0FBF3F016
:101DB00000F0DCFC68B90F2C01D901200AE00022F8
:101DC00021464FF0FF3000F099FC054B1C600020CD
:101DD00000E0012010BD00BF040000200C00002026
:101DE0000800002008B5074A136843F01003136089
:101DF000032000F071FC0F20FFF7CEFFFFF7DEFDA0
:101E0000002008BD00200240034B1B78034A1168E4
:101E10000B441360704700BF040000200002002044
:101E2000014B1868704700BF0002002082B0084BC9
:101E30001B68084AA2FB03235B0A00FB03F3019320
:101E400000BF019B5A1E0192002BF9D102B07047CE
:101E50000C000020D34D6210002800F0ED8170B519
:101E600082B00446036813F0010F2CD0994B5B68D5
:101E700003F00C03042B1DD0964B5B6803F00C039E
:101E8000082B12D06368B3F5803F41D0002B55D1A9
:101E900003F1804303F504331A6822F480321A6098
:101EA0001A6822F480221A6037E08A4B5B6813F4C8
:101EB000803FE7D0874B1B6813F4003F03D0636873
:101EC000002B00F0BB81236813F0020F75D0814B0B
:101ED0005B6813F00C0F5FD07E4B5B6803F00C0364
:101EE000082B54D02369002B40F081807A4B0022CC
:101EF0001A60FFF795FF0546764B1B6813F0020F3B
:101F00005BD0FFF78DFF401B0228F5D903209AE133
:101F1000704A136843F480331360636843B3FFF778
:101F20007FFF05466B4B1B6813F4003FCBD1FFF7D7
:101F300077FF401B6428F5D9032084E1B3F5A02F77
:101F400009D0644B1A6822F480321A601A6822F4AD
:101F500080221A60E1E703F18043A3F53C331A685D
:101F600042F480221A601A6842F480321A60D4E780
:101F7000FFF756FF0546574B1B6813F4003FA2D0EE
:101F8000FFF74EFF401B6428F5D903205BE1514B5E
:101F90005B6813F4803FA5D14E4B1B6813F0020F12
:101FA00003D02369012B40F04B814A4A136823F088
:101FB000F803616943EAC1031360236813F0080F53
:101FC00033D0A369002B5CD0434B0122C3F880249B
:101FD000FFF726FF05463F4B5B6A13F0020F21D146
:101FE000FFF71EFF401B0228F5D903202BE13A4BD7
:101FF00001221A60FFF714FF0546364B1B6813F0E9
:10200000020F06D1FFF70CFF401B0228F5D9032071
:1020100019E1304A136823F0F803616943EAC10308
:102020001360CAE70120FFF701FF236813F0040FD4
:1020300000F09680274BDB6913F0805F34D1254B8D
:10204000DA6942F08052DA61DB6903F08053019370
:10205000019B0125214B1B6813F4807F26D0E36888
:10206000012B3DD0002B53D103F1804303F5043302
:102070001A6A22F001021A621A6A22F004021A6233
:1020800033E0154B0022C3F88024FFF7C9FE054654
:10209000104B5B6A13F0020FC7D0FFF7C1FE401B65
:1020A0000228F5D90320CEE00025D3E70B4A1368B8
:1020B00043F480731360FFF7B3FE0646074B1B68BB
:1020C00013F4807FCBD1FFF7ABFE801B6428F5D9DA
:1020D0000320B8E0001002400000424200700040BF
:1020E0005F4A136A43F001031362E36833B3FFF7F7
:1020F00097FE06465A4B1B6A13F0020F2FD1FFF7CB
:102100008FFE801B41F288339842F3D903209AE076
:10211000052B09D0524B1A6A22F001021A621A6A80
:1021200022F004021A62E0E74D4B1A6A42F0040200
:102130001A621A6A42F001021A62D6E7FFF770FECD
:102140000646474B1B6A13F0020F08D0FFF768FEE4
:10215000801B41F288339842F3D9032073E0E5B93C
:10216000E369002B6ED03E4A526802F00C02082A46
:1021700052D0022B17D03B4B00221A66FFF750FEBD
:102180000446374B1B6813F0007F60D0FFF748FE12
:10219000001B0228F5D9032055E0314AD36923F00A
:1021A0008053D361DCE72F4B00221A66FFF738FE1D
:1021B00005462B4B1B6813F0007F06D0FFF730FE5F
:1021C000401B0228F5D903203DE0236AB3F5803F88
:1021D0001AD023494B6823F47413226A606A0243BD
:1021E00013434B601F4B01221A66FFF719FE04468A
:1021F0001B4B1B6813F0007F27D1FFF711FE001B5C
:102200000228F5D903201EE0154A536823F4003351
:10221000A1680B435360DCE7012B1AD0104B5B68BD
:1022200003F48031226A914215D103F47013626A7B
:10223000934212D1002006E001207047012002E005
:10224000012000E0002002B070BD0020FBE700206C
:10225000F9E70120F7E70120F5E70120F3E700BFE8
:10226000001002400000424286B0174B0FCB0DF128
:10227000180C0CE90F0040F20123ADF80430134BA9
:102280005B6803F00C02082A02D0114806B07047C0
:10229000C3F3834218326A4412F8100C13F4803FDF
:1022A0000DD00A4B5B68C3F3404318336B4413F8FB
:1022B000143C074A02FB00F0B0FBF3F0E6E7054BE5
:1022C00003FB00F0E2E700BFB86100080010024025
:1022D00000127A0000093D00002800F0A08070B5CF
:1022E0000D460446524B1B6803F007038B420BD28A
:1022F0004F4A136823F007030B431360136803F07E
:1023000007038B4240F08D80236813F0020F17D033
:1023100013F0040F04D0474A536843F4E06353605A
:10232000236813F0080F04D0424A536843F4605303
:102330005360404A536823F0F003A1680B43536095
:10234000236813F0010F31D06368012B20D0022BDA
:1023500025D0384A126812F0020F64D035494A6815
:1023600022F0030213434B60FFF75AFD0646314B40
:102370005B6803F00C036268B3EB820F16D0FFF7C3
:102380004FFD801B41F288339842F0D9032045E08D
:10239000284A126812F4003FE0D101203EE0254AAD
:1023A000126812F0007FD9D1012037E0204B1B6862
:1023B00003F00703AB420AD91D4A136823F0070351
:1023C0002B431360136803F00703AB422DD123683E
:1023D00013F0040F06D0174A536823F4E063E16852
:1023E0000B435360236813F0080F07D0114A53685A
:1023F00023F46053216943EAC1035360FFF734FFBC
:102400000C4B5B68C3F303130B4AD35CD8400B4BF4
:1024100018600B4B1868FFF7BFFC002070BD01204F
:1024200070470120FAE70120F8E70120F6E700BF36
:102430000020024000100240CC6100080C00002087
:1024400008000020014B1868704700BF0C000020F6
:1024500008B5FFF7F7FF044B5B68C3F30223034A99
:10246000D35CD84008BD00BF00100240DC6100080A
:1024700008B5FFF7E7FF044B5B68C3F3C223034AC9
:10248000D35CD84008BD00BF00100240DC610008EA
:1024900070B582B00024A446A7E0814DAA4210D0B6
:1024A00007D9804DAA420CD005F58035AA4208D044
:1024B00013E0A5F58015AA4203D005F57025AA42C0
:1024C00007D18A68002A58D0012A51D043610824D4
:1024D00003E0A5F58015AA42F3D0BEF1FF0F4ED858
:1024E0000646BEF1FF0F4CD84FEA8C0233680F2529
:1024F000954023EA050304FA02F2134333604B6864
:1025000013F0805F6FD0684B9A6942F001029A61C4
:102510009B6903F001030193019B4FEA9C02951C08
:10252000624B53F825300CF00305AD000F26AE408A
:1025300023EA06035E4EB04229D006F58066B0421B
:1025400000F0908006F58066B04200F08D8006F5C0
:102550008066B04219D004261AE0CC68BDE7CC688A
:102560000434BAE7CC680834B7E7CC680C34B4E775
:1025700003610824B1E70024AFE70424ADE7061D9A
:10258000AFE7ACF108029200B0E7032600E00026B6
:1025900006FA05F52B430232444D45F822304B68CC
:1025A00013F4803F62D0434A136843EA0E0313607A
:1025B0004B6813F4003F5FD03E4A536843EA0E0372
:1025C00053604B6813F4801F5CD03A4A936843EA27
:1025D0000E0393604B6813F4001F59D0354AD3683B
:1025E00043EA0E03D3600CF1010C0A6832FA0CF3D3
:1025F00054D0012303FA0CF302EA030E33EA020279
:10260000F1D14A68122A3FF648AF122A3FF665AF69
:1026100001A555F822F000BFC32400085B2500087F
:102620006525000877250008DB240008DB24000866
:10263000DB240008DB240008DB240008DB2400087E
:10264000DB240008DB240008DB240008DB2400086E
:10265000DB240008DB240008DB2400085F250008D9
:102660006B250008012693E7022691E7114A1368BB
:1026700023EA0E0313609BE70E4A536823EA0E0316
:1026800053609EE70B4A936823EA0E039360A1E729
:10269000084AD36823EA0E03D360A4E702B070BDF2
:1026A0000000221000003110001002400000014024
:1026B00000080140000401400AB1016170470904AB
:1026C00001617047C36801EA030221EA030141EA9C
:1026D0000241016170470000074AD36823F4E063B8
:1026E0001B041B0C000200F4E060034343F0BF63D3
:1026F00043F40033D360704700ED00E000B5194BA0
:10270000DB68C3F30223C3F1070CBCF1040F28BF3D
:102710004FF0040C03F1040EBEF1060F18D9033B71
:102720004FF0FF3E0EFA0CFC21EA0C0199400EFA24
:1027300003F322EA0303194300280BDB0901C9B2A2
:1027400000F1604000F5614080F800135DF804FB83
:102750000023E5E700F00F000901C9B2024B19544C
:10276000F4E700BF00ED00E014ED00E00138B0F147
:10277000807F0BD24FF0E0235861054AF02182F8A8
:1027800023100020986107221A61704701207047CA
:1027900000ED00E0704700000C480D490D4A002391
:1027A00002E0D458C4500433C4188C42F9D30A4A06
:1027B0000A4C002301E013600432A242FBD3FFF76E
:1027C000E9FF00F0EFFC00F09FF9704700000020E7
:1027D000E4010020346A0008E40100209403002092
:1027E000FEE700228270C0F808210270C0F80421C0
:1027F000427070470022426082830260427282729D
:10280000C272704738B504460D464FF40051054872
:10281000FFF758FF4FF4FA732A4621460248FFF7A4
:10282000DCF938BD001001403803002030B589B014
:1028300000240494059406940794304B9A6942F05E
:1028400010029A619A6902F010020092009A9A6945
:1028500042F020029A619A6902F020020192019AE4
:102860009A6942F004029A619A6902F004020292A3
:10287000029A9A6942F008029A619B6903F0080380
:102880000393039B1E4D01224FF400512846FFF78E
:1028900013FF4FF40053049301230593069402237E
:1028A000079304A92846FFF7F3FD4FF44043049330
:1028B0000324059404A92846FFF7EAFD049405942F
:1028C00004A91048FFF7E4FD49F6FF1304930594AB
:1028D00004A90D48FFF7DCFD4FF6FF730493059440
:1028E00004A90A48FFF7D4FD094A536843F0E0639E
:1028F00043F40043536009B030BD00BF00100240F4
:10290000001001400014014000080140000C01408B
:1029100000000140012800D070474FF6FF73994234
:10292000FAD170B51A4D00242C706C704FF480727F
:102930002146A81C00F05AFCC5F80841154BC5F803
:1029400008311548C5F80401214600F0E1FB687024
:1029500001232B70114E32461149284600F00BFC22
:10296000104804600423037244728472C472848326
:102970000D4B4360052383830C4B03603B23437261
:102980002C238372C3723246094900F0F4FB70BDF8
:1029900004020020052800087063000800000020E1
:1029A000E327000810030020A0630008C5300008DA
:1029B000F527000808B5194B1B7813F0010F18D044
:1029C000164B5978B1B90021154800F0A1FB01461A
:1029D000124B1B7813F0020F06D013F0040FFCD13A
:1029E00043F004030D4A13700C4BD3F808310C4824
:1029F000984708BDD3F8040189B21B7813F0020F81
:102A000006D013F0040FFCD143F00403034A137003
:102A1000024BD3F808319847D5E700BF04020020E5
:102A2000E461000872B6FEE708B50A480A4B036085
:102A30004FF4E133436000238360C36003610C22E1
:102A400042618361C361FFF799F800B908BDFFF7E0
:102A5000E9FF00BF380300200038014000B591B005
:102A60002822002106A800F0C1FB00230193029355
:102A70000393049305930223069301230A931023DF
:102A80000B9306A8FFF7E8F968B90F23019300211B
:102A9000029103910491059101A8FFF71DFC20B953
:102AA00011B05DF804FBFFF7BDFFFFF7BBFF38B5C2
:102AB000037813F0010F16D004460D46417899B9FA
:102AC0000021284600F024FB0146237813F0020F72
:102AD00005D013F0040FFCD143F004032370D4F8A5
:102AE00008312846984738BDD0F8040189B213F060
:102AF000020F05D013F0040FFCD143F00403237040
:102B0000D4F808319847DBE72DE9F04192B0FFF7A0
:102B100069F9FFF7A3FFFFF789FEFFF785FF0024A0
:102B20008DF8474001943C22214602A800F05EFB4C
:102B300045494648FFF7BBFF69E004F148030DEB48
:102B40000304002304F8443C8DF84730404B93F8CD
:102B5000008001AE1EE0002408E0A21C3D4B03EB08
:102B600082035D600134E4B280B10546394B1B7AC3
:102B7000A3420BD0374BD97A284600F0B6FA2B780F
:102B8000002BEAD1B8F1000FEED0E6E73B788BB925
:102B9000002E4DD037462F4C617A304600F0A5FA12
:102BA0000646A17A384600F0A0FA05460028D2D1A0
:102BB0000024EBE7274B9A8B5968384600F0C4FA9B
:102BC000B0F1FF3F09D0234A536803EBC0035B68B1
:102BD000214602F10C009847DAE71E4B1B680021E2
:102BE00038469847D4E704F148026A4402F8443C66
:102BF0000134E4B2FFF714F9174B1B68C01A174BE6
:102C00001B88984203D3164B1B78022B12D001234A
:102C10001A460DF147011348FFF74BF89DF847306E
:102C20000A2B8AD0002BE5D03F2CDCD90024DAE730
:102C30000024DFE74FF400510B48FFF743FDFFF797
:102C4000EFF8054B1860E2E7346200080402002048
:102C50003003002010030020340300201000002067
:102C60007C03002038030020001001400EB470B532
:102C700083B00446037813F0010F1DD013F0040F46
:102C8000FCD108AB0193A61C079A4FF48071304623
:102C900000F0C6FF85B2617899B9237813F0020F6E
:102CA00005D013F0040FFCD143F004032370D4F8D3
:102CB000083129463046984703B0BDE8704003B05C
:102CC0007047D4F8040189B2237813F0020F05D0BD
:102CD00013F0040FFCD143F004032370D4F808313F
:102CE0009847DAE708B569B103681B78303BDBB277
:102CF0005E4A1370012B6FD0022B00F0A580002BD1
:102D000032D008BD5A4B1B7813F0010FF9D0584B45
:102D10005978B1B90021574800F0FAF90146544BEF
:102D20001B7813F0020F06D013F0040FFCD143F010
:102D300004034F4A13704E4BD3F808314D4898475F
:102D4000DFE7D3F8040189B21B7813F0020F06D035
:102D500013F0040FFCD143F00403454A1370444BB5
:102D6000D3F808319847D5E7414B1B7813F0010F92
:102D700018D03F4B5978E1B900213F4800F0C8F91D
:102D800001463B4B1B7813F0020F06D013F0040FE3
:102D9000FCD143F00403364A1370354BD3F80831A5
:102DA0003548984701224FF400513448FFF784FC1E
:102DB000A7E7D3F8040189B21B7813F0020F06D0FD
:102DC00013F0040FFCD143F00403294A1370284B7D
:102DD000D3F808319847CFE7254B1B7813F0010F44
:102DE00018D0234B5978E1B90021254800F090F91B
:102DF00001461F4B1B7813F0020F06D013F0040F8F
:102E0000FCD143F004031A4A1370194BD3F808316C
:102E10001B48984700224FF400511848FFF74CFC1C
:102E20006FE7D3F8040189B21B7813F0020F06D0C4
:102E300013F0040FFCD143F004030D4A13700C4B44
:102E4000D3F808319847CFE70E4B1A880E49084847
:102E5000FFF70CFF01224FF400510848FFF72CFC4C
:102E6000FEF7DEFF094B18604BE700BF7C03002034
:102E700004020020686200087C6200080010014023
:102E80008C620008100000209862000834030020C3
:102E900008B5002931D13B4B1B7813F0010F18D036
:102EA000384B5978B1B90021374800F031F9014663
:102EB000344B1B7813F0020F06D013F0040FFCD133
:102EC00043F004032F4A13702E4BD3F808312E48D9
:102ED000984708BDD3F8040189B21B7813F0020F9C
:102EE00006D013F0040FFCD143F00403254A1370FD
:102EF000244BD3F808319847D5E7006800F040F933
:102F000082B2A2F10A039BB240F2DE318B4206D8B4
:102F10001E4B1A801E491B48FFF7A8FED9E7194B24
:102F20001B7813F0010FD4D0164B5978B1B900219A
:102F3000184800F0EDF80146124B1B7813F0020F11
:102F400006D013F0040FFCD143F004030D4A1370B4
:102F50000C4BD3F808310F489847BAE7D3F804016F
:102F600089B21B7813F0020F06D013F0040FFCD1C6
:102F700043F00403034A1370024BD3F80831984717
:102F8000D5E700BF0402002068620008100000209E
:102F9000E8620008BC62000870B506460D46384B72
:102FA0001B7813F0010F18D0354B5978B9B90021AF
:102FB000344800F0ADF80146314B1B7813F0020F96
:102FC00006D013F0040FFCD143F004032C4A137015
:102FD0002B4BD3F808312B48984700241BE0D3F83B
:102FE000040189B21B7813F0020F06D013F0040F0E
:102FF000FCD143F00403224A1370214BD3F808316B
:103000009847D4E756F8243022461F491C48FFF75A
:103010002DFE0134E4B2AC42F4D3194B1B7813F00B
:10302000010F18D0164B5978B1B90021174800F09C
:103030006FF80146124B1B7813F0020F06D013F005
:10304000040FFCD143F004030D4A13700C4BD3F86A
:1030500008310E48984770BDD3F8040189B21B7837
:1030600013F0020F06D013F0040FFCD143F0040359
:10307000034A1370024BD3F808319847D5E700BFD5
:10308000040200200463000814630008E4620008DE
:1030900008B5074A1378B3FA83F35B0913702BB1B1
:1030A000044A05490548FFF7E1FD08BD044AF8E771
:1030B0003003002038630008406300080402002049
:1030C0002C63000808B5024602490348FFF7CEFD0D
:1030D00008BD00BF586300080402002008B54FF681
:1030E000FF710120FFF716FC08BD034600E0013325
:1030F0001A780AB18A42FAD142B11846002200F881
:10310000012B5B7803B17047104670470020FAE747
:10311000034600E001331A788A42FBD1181A80B2C4
:10312000704701E0013001310378934205D091F8F6
:1031300000C06345F6D0002070470A78934201D161
:103140000120704700207047F8B507460E46154627
:10315000002401E00134A4B2AC4209D2002256F8A6
:1031600034103846FFF7DDFF0128F3D120B201E02B
:103170004FF0FF30F8BD0B460146184600F004B88A
:103180000A22002100F016BD10B50446044813467B
:1031900020B10A4602202146AFF3008010BD00BFD7
:1031A0000000000070B500260C4D0D4C641BA410EF
:1031B000A64209D102F0F2FF00260A4D0A4C641B18
:1031C000A410A64205D170BD55F8043B98470136BE
:1031D000EEE755F8043B98470136F2E7286A000805
:1031E000286A0008286A0008306A0008034602447A
:1031F000934200D1704703F8011BF9E7002B2DE93A
:10320000F0471F46BBBF03F100431F4600232D2399
:1032100088B01446129A109D1370149BDDF84CA0D0
:1032200023F02008B8F1460F05D0B8F1450F00D1C2
:103230000135022300E0032307AA049206AACDE980
:1032400002A2CDE9003522463B4600F085FDB8F1EB
:10325000470F064602D1119BDB0722D5B8F1460F76
:1032600006EB050910D13378302B0AD10022002358
:1032700020463946FDF798FB18B9C5F10105CAF893
:103280000050DAF8003099440022002320463946E5
:10329000FDF78AFB08B1CDF81C903022079B4B4507
:1032A00007D33046079B159A9B1B136008B0BDE8F7
:1032B000F087591C07911A70F0E70346F7B500290B
:1032C00003F8022BB6BF2D222B2249420929427056
:1032D0002BDD0DF10704A4460A2791FBF7F60A46F9
:1032E000A64607FB1615632A05F13005314604F1A1
:1032F000FF340EF8015CF0DC3031AEF1020504F869
:10330000011C2946441C61450AD30DF10902A2EBB8
:103310000E02654588BF00221344181A03B0F0BDA1
:1033200011F8012B04F8012FEDE7302330318370C1
:10333000C170031DF1E700002DE9F04F91B00C467C
:10334000DDF8688016461F46054601F0F9FA036865
:1033500018460993FCF7FCFE00230E93D8F80030C2
:103360000A90073323F0070303F1080294F818903A
:10337000D4F800B0C8F80020D3E90023C4E9122330
:10338000D4E9128A2AF000430B934FF0FF324046F3
:103390009C4B0B99FDF73AFB70BB4FF0FF32404658
:1033A000984B0B99FDF714FB30BB002200234046DD
:1033B0005146FDF703FB10B12D2384F84330924BA7
:1033C0009248B9F1470F94BF9846804603234FF0C7
:1033D000000A23612BF0040323603346214628466C
:1033E00000970FAA00F0D4F9013040F090804FF020
:1033F000FF3011B0BDE8F08F42465346404651467B
:10340000FDF704FB48B1BAF1000FB8BF2D23804887
:10341000B8BF84F843307F4BD3E7636809F0DF011E
:103420005A1C42D106236360002206920EAACDE9FF
:1034300004920DAA4BF4806303920DF13302CDE99F
:1034400001322360636842460093284653460B913D
:10345000FFF7D4FE0B99804647290D9908D1C81C67
:1034600002DB6368994240DDA9F102095FFA89F93C
:10347000B9F1650F1FD84A46013904F150000D918A
:10348000FFF71BFF0E9A82461318012A236102DC04
:103490002268D20701D5013323619DF83330002B18
:1034A0009BD02D2384F8433097E74729BCD1002BCC
:1034B000BAD10123B7E7B9F1660F18D100296368C3
:1034C0000BDD216113B92268D00702D501330B440B
:1034D00023614FF0000AA165DFE713B92268D20724
:1034E00001D50233F4E70123F2E74FF067090E9BA1
:1034F000994205DB23682161D807EAD54B1CE7E731
:103500000029CCBF0122C1F102021344E0E7236885
:103510005A0507D42369424631462846B847013048
:103520002BD164E7B9F1650F40F2DD80D4E91201D7
:1035300000220023FDF738FA002833D0012331465A
:103540002846354AB84701303FF451AFDDE90D2335
:103550009A4202DB2368D8070FD5DDE909233146FB
:103560002846B84701303FF442AF4FF0000804F15D
:103570001A090E9B013B434509DC23689B0700F1B8
:103580000281E0680F9B9842B8BF184631E70123DB
:103590004A4631462846B84701303FF428AF08F183
:1035A0000108E6E70D9B002B38DC01233146284655
:1035B000194AB84701303FF41AAFDDE90D23134330
:1035C00002D12368D907D8D5DDE909233146284639
:1035D000B84701303FF40BAF4FF0000904F11A0A6D
:1035E0000D9B5B424B4501DC0E9B94E70123524649
:1035F00031462846B84701303FF4F9AE09F10109D8
:10360000EEE700BFFFFFEF7FCC630008D063000848
:10361000D8630008D4630008DC6300080E9AA36D29
:103620009A42A8BF1A46002A914637DC4FF0000B99
:1036300029EAE97904F11A02D4F858A0AAEB09039F
:103640005B4533DCDDE90D239A423BDB2368DA0777
:1036500038D40E9B0D99A3EB0A02A3EB0109914507
:10366000A8BF9146B9F1000F34DC4FF0000829EAF9
:10367000E97904F11A0ADDE90D239B1AA3EB09038A
:1036800043457FF77AAF0123524631462846B84773
:1036900001303FF4ACAE08F10108ECE713463146C7
:1036A00042462846B8470130C0D1A0E60123314642
:1036B00028460B92B84701303FF499AE0B9A0BF1B4
:1036C000010BB9E73146DDE909232846B847013047
:1036D000BFD18CE64B463146284608EB0A02B84774
:1036E0000130C2D183E60E9A012A01DCDB0737D50F
:1036F0000123424631462846B84701303FF477AEB1
:10370000DDE9092331462846B84701303FF46FAE62
:10371000D4E9120100220023FDF746F9D8B90E9B27
:1037200008F10102013B31462846B84701300ED16D
:103730005DE601234A4631462846B84701303FF44A
:1037400056AE08F101080E9B013B4345F1DC5346A0
:1037500004F15002E0E64FF0000804F11A09F2E724
:1037600001234246DFE701234A4631462846B8474F
:1037700001303FF43CAE08F10108E3680F995B1A91
:103780004345F0DCFDE64FF0000804F11909F4E7C9
:103790002DE9F047164699468A680B690746934219
:1037A000B8BF1346336091F843200C46DDF8208003
:1037B0000AB1013333602368990642BF336802338C
:1037C0003360256815F0060506D104F1190AE3688F
:1037D00032689B1AAB4228DC94F84320131E2268FF
:1037E00018BF012392062DD44946384604F14302FE
:1037F000C047013020D02368E56803F00603042B9E
:1038000018BF002532684FF00006A36808BFAD1A44
:10381000226908BF25EAE5759342C4BF9B1AED18DB
:103820001A34B5421AD1002008E001235246494615
:103830003846C047013003D14FF0FF30BDE8F08774
:103840000135C4E73020E11881F843005A1C94F890
:1038500045102244023382F84310C5E70123224673
:1038600049463846C0470130E6D00136D9E7000066
:103870002DE9FF470F7E9146782F80460C469A46E9
:103880000C9D01F1430207D8622F0AD8002F00F0E7
:10389000D980582F00F0A48004F1420584F84270CA
:1038A0003AE0A7F16303152BF6D801A151F823F0F4
:1038B000093900081D3900089938000899380008AE
:1038C00099380008993800081D390008993800080F
:1038D0009938000899380008993800082B3A0008F0
:1038E0004D3900080D3A0008993800089938000849
:1038F0004D3A0008993800084D39000899380008F9
:1039000099380008153A00082B681A1D1B682A60B0
:1039100004F1420584F842300123A4E020682968BC
:10392000060601F104030AD50E682B60002E03DAA7
:103930002D23764284F843300A235E4819E00E684E
:1039400010F0400F2B6018BF36B2EFE72B682068ED
:10395000191D2960010601D51E6802E04606FBD547
:103960001E886F2F0CBF08230A235248002184F8B9
:1039700043106568002DA8BF2168A560A4BF21F091
:10398000040121600EB9002D4DD01546B6FBF3F1B0
:1039900003FB1167C75D05F8017D3746BB420E4644
:1039A000F4D9082B0BD12368DE0708D52369616899
:1039B0009942DEBF302305F8013C05F1FF35521B6B
:1039C00022614B4621464046CDF800A003AAFFF7EE
:1039D000DFFE01304CD14FF0FF3004B0BDE8F0877E
:1039E000344881F845702968236851F8046B2960D0
:1039F0001D0614D5DF0744BF43F0200323601EB922
:103A0000236823F0200323601023AFE7236843F0EB
:103A1000200323607823284884F84530E3E75906DB
:103A200048BFB6B2E6E71546BBE72B682668181D07
:103A30006169286035061B6801D5196002E07006CF
:103A4000FBD51980002315462361BAE72B680021B6
:103A50001A1D2A601D686268284600F07DFF08B1C3
:103A6000401B606063682361002384F84330A8E74B
:103A70002A46494640462369D0470130ABD02368E7
:103A80009B0713D4E068039B9842B8BF1846A4E78D
:103A90000123324649464046D04701309BD001358C
:103AA000E36803995B1AAB42F2DCEBE7002504F113
:103AB0001906F5E7DE630008EF630008012B2DE926
:103AC000F047804601D0242B06D900F033FF16239F
:103AD00003600020BDE8F0870D46354F284615F8F5
:103AE000014BE65D16F00806F8D12D2C2FD10126EA
:103AF0002C78851C002B57D0102B09D1302C07D1E6
:103B0000287800F0DF00582849D110236C7802355E
:103B1000002706F1004E0EF1FF3EBEFBF3F93846DA
:103B200003FB19EAA4F1300CBCF1090F14D8644668
:103B3000A34222DD002F1DDB81451BD301D1A2450D
:103B400018DB012700FB034015F8014BEAE72B2C9B
:103B500004BF2C78851CCDE7A4F1410CBCF1190FF2
:103B600001D8373CE4E7A4F1610CBCF1190F04D88B
:103B7000573CDDE74FF0FF37E6E7002F07DA222357
:103B80007046C8F80030002AA4D0691E05E006B1CE
:103B90004042002A9ED0002FF7D111609AE73024CE
:103BA000002BB5D10823B3E7302CA9D00A23AFE707
:103BB0000164000813460A46014602480068FFF700
:103BC0007DBF00BF1400002030B51446002C054610
:103BD0001A469BB005DA8B2303604FF0FF301BB011
:103BE00030BD4FF40273ADF80C300CBF234604F126
:103BF000FF33029305934FF6FF7300910491ADF8E4
:103C00000E3069461E9B01F091FB431CBCBF8B2309
:103C10002B60002CE3D00022009B1A70DFE700002D
:103C200007B5009313460A46014603480068FFF7AC
:103C3000CBFF03B05DF804FB140000202DE9F74F23
:103C400003690C690746A342C0F28280013C00F17F
:103C5000140501F1140805EB8403019358F824308E
:103C600055F8242001339A42B2FBF3F64FEA840B55
:103C700008EB840931D34FF0000E4046AC46F246C3
:103C800050F8042B93B206FB03E3120C4FEA134ED9
:103C90009BB206FB02E2AAEB0303DCF800A04FEAAA
:103CA000124E1FFA8AFA5344DCF800A092B2C2EB1B
:103CB0001A4202EB23429BB243EA024381454FEA98
:103CC000224A4CF8043BDBD255F80B302BB9019B50
:103CD000043B9D421A462FD33C61384601F0D6F88A
:103CE000002825DB28464FF0000C013658F8041B4D
:103CF000D0F800E08BB2ACEB03031FFA8EF2134452
:103D00000A0CC2EB1E4202EB23429BB243EA02437F
:103D1000C1454FEA224C40F8043BE7D255F8242035
:103D200005EB840322B9043B9D421A460AD33C6149
:103D3000304603B0BDE8F08F1268043B002ACBD1B7
:103D4000013CC6E71268043B002AF0D1013CEBE7D6
:103D50000020EEE7000000002DE9F04F16461F4658
:103D6000446A99B00546CDE90467DDF8948074B9DA
:103D7000102000F0E9FD0246686220B9EA21A84B54
:103D8000A84801F0E3FBC0E901440460C4606B6A29
:103D9000196851B15A68012393404A608B602846E4
:103DA00000F036FE00226B6A1A603B1EAFBF002394
:103DB000012223F000430593A8BFC8F80030DDF8C6
:103DC0001490994BB8BFC8F8002033EA090319D101
:103DD00042F20F73249A1360C9F31303334300F0C4
:103DE0007F85269B53B9914B22E0914B0393083377
:103DF000269A1360039819B0BDE8F08F8B4B03939C
:103E00000333F5E7DDE90434CDE90C34DDE90C01D9
:103E100000220023FCF7C8FD804658B10123249AF4
:103E20001360269B002B00F0588582481860431EC3
:103E30000393DFE716AB019317AB00932846DDE948
:103E40000C2301F0CBF8C9F30A548346002C7FD031
:103E5000DDE90C010D9BA4F2FF34C3F3130343F01F
:103E60007F5141F44011CDF84C800022724BFCF799
:103E70007BF965A3D3E90023FCF72EFB64A3D3E908
:103E80000023FCF773F9064620460F46FCF7BAFA02
:103E900061A3D3E90023FCF71FFB02460B46304623
:103EA0003946FCF763F906460F46FCF7C5FD0022CC
:103EB0008246002330463946FCF780FD48B1504623
:103EC000FCF7A0FA32463B46FCF76EFD08B90AF152
:103ED000FF3ABAF1160F58D8DDE90C01574B03EB46
:103EE000CA03D3E90023FCF769FD00284FD0002363
:103EF0000AF1FF3A0F93169B1C1B631E099349BFDF
:103F0000C4F1010300230693002354BF06930993D1
:103F1000BAF1000F3DDB099BCDF838A0534409935B
:103F200000230A93229B092B00F28C80052BC4BF2F
:103F3000043B2293229BC8BF0024A3F10203D8BFF5
:103F40000124032B00F28A80DFE803F02D4F4D5B44
:103F5000DDE916431C4404F23243202BC3BFC3F1F6
:103F6000400304F2124009FA03F3C3F12003C6BF71
:103F700026FA00F0184306FA03F0FCF733FA01239F
:103F8000A1F1F871013C13936FE70123B2E70F90A1
:103F9000B1E7069BA3EB0A030693CAF100030A9359
:103FA00000230E93BEE700230B93239B002B58DCCA
:103FB0004FF001094B46CDF82090CDF88C900022AF
:103FC000686A4260042202F114069E4241684ED99A
:103FD000284600F0DDFC039000284CD102464FF447
:103FE000D571174BCCE60123DEE700230B93239B0F
:103FF0000AEB030909F10103012B0893B8BF012360
:10400000DDE70123F2E700BF61436F63A787D23F7B
:10401000B3C8608B288AC63FFB799F501344D33FB7
:104020000E650008256500080000F07F0A6500089D
:1040300001650008DD6300080000F83F60660008C5
:10404000A3650008012400230B9422934FF0FF394D
:1040500000221223CDF820902392B0E701230B9386
:10406000F4E7DDF88C904B46CDF82090A7E70131BE
:1040700041605200A7E76B6A039A1A60089B0E2BF7
:1040800000F2A880002C00F0A580BAF1000F34DD0A
:104090009A4A0AF00F0302EBC3031AF4807FD3E9B4
:1040A0000034CDE910344FEA2A1416D0DDE90C01B2
:1040B000934B0327D3E90823FCF738FBCDE9040130
:1040C00004F00F048E4E54B9DDE91023DDE904013C
:1040D000FCF72CFBCDE9040129E00227F2E7E10718
:1040E00008D5DDE91001D6E90023FCF7F5F9CDE9A3
:1040F0001001013764100836E5E700F0A580DDE91E
:104100000C01CAF100047D4B04F00F0203EBC20363
:10411000D3E90023FCF7E0F902270023CDE90401ED
:10412000774E2411002C40F08480002BD2D10F9BBD
:10413000002B00F08B80DDE90434CDE91034DDE99B
:10414000100100226F4BFCF739FC00287ED0089B41
:10415000002B7BD0B9F1000F38DDDDE91001002222
:10416000694BFCF7B9F94C46CDE904010AF1FF3877
:1041700001373846FCF746F9DDE90423FCF7ACF9D2
:104180000022624BFBF7F2FFA1F15076CDE910015E
:104190001196002C5DD1DDE9040100225C4BFBF798
:1041A000E3FF02460B46CDE904233346109AFCF7A1
:1041B00023FC002840F09C82DDE90401109A06F1FE
:1041C0000043FCF7FBFB002840F09082DDE90C3453
:1041D000CDE90434179B002BC0F25281BAF10E0FC7
:1041E00000F34E81454B03EBCA03D3E90034CDE91C
:1041F0000634239B002B80F2DB80089B002B00F30E
:10420000D78040F07282DDE906010022404BFCF7C6
:1042100063F9DDE90423FCF7E5FB089C264600284A
:1042200040F048823123039F0AF1010A07F8013B5D
:1042300044E2E20705D5D6E90023FCF74DF9012356
:104240000137641008366DE7022770E7D046089CF6
:104250008FE70399294B214412910B9903EBC40377
:10426000DDE9106753E90223002955D000202949D0
:10427000FCF75CFA3B463246FBF776FFCDE91001CE
:10428000039FDDE90401FCF7D7FB0446FCF7BAF80D
:1042900002460B46DDE90401FBF766FF02460B46CA
:1042A0003034CDE90423DDE9102307F8014BFCF796
:1042B00085FB002874D1DDE9042300201149FBF7B8
:1042C00053FFDDE91023FCF779FB002840F0B780AD
:1042D000129B9F423FF47AAFDDE9100100220A4BA6
:1042E000FCF7FAF80022CDE91001DDE90401064BE4
:1042F000FCF7F2F8CDE90401C3E700BF60660008EF
:10430000386600080000F03F0000244000001C4018
:10431000000014400000E03F30463946FCF7DCF86E
:10432000129BCDE91001039C1493DDE90401FCF715
:1043300083FB1590FCF766F802460B46DDE90401A5
:10434000FBF712FF159B0646303304F8013B129B26
:104350000F469C424FF0000224D1DDE91001B04B22
:10436000FBF704FF02460B4630463946FCF744FB98
:10437000002863D1DDE910230020A949FBF7F4FEF2
:1043800002460B4630463946FCF718FB00283FF43E
:104390001DAF149F7B1E149317F8013C302BF8D0EF
:1043A000C2463BE09F4BFCF797F8CDE90401BCE720
:1043B000039FDDE90489DDE9062340464946FCF711
:1043C000B5F9FCF739FB0446FCF71CF8DDE90623D8
:1043D000FCF782F802460B4640464946FBF7C4FE0E
:1043E00004F1300607F8016B039EDDF820C0BE1B08
:1043F000B44502460B4636D1FBF7B8FEDDE906238D
:1044000080468946FCF7F8FA58BBDDE906234046AA
:104410004946FCF7C9FA08B1E10722D428465946B3
:1044200000F0F6FA00233B70249B0AF101001860AB
:10443000269B002B3FF4DEAC1F60DBE427463B46A7
:104440001F4613F8012D392A07D1039A9A42F7D152
:104450003022039908F101080A701A7801321A70A3
:104460009EE7D046EBE700226E4BFCF735F80022C2
:10447000002380468946FCF797FA00289BD0CDE7B9
:104480000B9A002A00F0D080229A012A00F3AE8015
:10449000139A002A00F0A68003F233430A9C069F79
:1044A000069A01211A440692099A28461A4409924A
:1044B00000F064FB0646002F0CDD099B002B09DD94
:1044C000BB42A8BF3B46069AFF1AD21A0692099A27
:1044D000D31A09930A9BF3B10B9B002B00F0A88021
:1044E000002C10DD31462246284600F005FC5A46D5
:1044F00001460646284600F057FB804659462846A6
:1045000000F086FAC3460A9B1A1B04D05946284677
:1045100000F0F2FB83460121284600F02FFB0E9BA2
:104520000446002B40F386801A460146284600F0D8
:10453000E3FB229B0446012B7FDD4FF0000823693B
:1045400004EB8303186900F0CBFAC0F12000099B4B
:10455000184410F01F0000F09280C0F12003042BDB
:1045600040F38A80C0F11C00069B07440344069375
:10457000099B03440993069B002B05DD59461A4607
:10458000284600F013FC8346099B002B05DD2146DD
:104590001A46284600F00AFC04460F9B002B70D0F8
:1045A0002146584600F072FC00286ADA002359467A
:1045B0000A22284600F04EFA0B9B83460AF1FF3A86
:1045C000002B00F09481314600230A22284600F097
:1045D00041FAB9F1000F064600F39380229B022BAB
:1045E00057DC8EE0169BC3F1360357E7089B5C1E31
:1045F0000A9BA342B7BF0A9B1C1BE21A0E9BBEBFBD
:104600000A949B180E93089BB8BF0024002BBBBFD5
:10461000069B089A069F9F1AACBF089B00233FE7A2
:104620000000E03F000024400A9C069F0B9E42E7EA
:104630000A9A6BE7229B012B19DC049BBBB9059BF3
:10464000C3F313039BB9059B23F000431B0D1B050C
:1046500083B14FF00108069B01330693099B013398
:1046600009930E9B002B7FF46AAF01206FE74FF098
:104670000008F6E79846F4E73FF47DAF18461C3093
:1046800072E7089B002B36DC229B022B33DDDDF822
:104690002090B9F1000F0DD121464B460522284646
:1046A00000F0D8F901460446584600F0EFFB002818
:1046B0003FF7B8AD239B039F6FEA030A4FF0000852
:1046C0002146284600F0A4F9002E3FF4A7AEB8F129
:1046D000000F05D0B04503D04146284600F098F9B8
:1046E0003146284600F094F998E600242646E1E792
:1046F000C246264696E50B9BDDF82090002B00F085
:10470000FD80002F05DD31463A46284600F04EFB7D
:104710000646B8F1000F5CD02846716800F038F901
:10472000074628B9024640F2EA217F4BFFF728BB33
:10473000326906F10C01023292000C3000F01AF9D5
:1047400001223946284600F031FBB0460646039B5D
:1047500001330893039B4B440A93049B03F001032A
:104760000993089B2146013B58460493FFF766FADC
:10477000034641463033069058460B9300F086FBC3
:10478000324681462146284600F09CFBC268074617
:104790000B9B02BB0146584600F078FB02460B9B80
:1047A00039462846CDE90B3200F032F9229B0C9AAB
:1047B000089F43EA0201099B0B430B9B0DD1392B48
:1047C00029D0B9F1000F01DD069B3133049A137033
:1047D00076E73046B9E70122E2E7B9F1000F06DBE0
:1047E000229941EA0909099959EA010120D1002ACF
:1047F000ECDD594601222846089300F0D7FA2146FD
:10480000834600F043FB0028089B02DCDED1DA0778
:10481000DCD5392BD8D13923049A13703B461F4677
:1048200017F8012C013B392A50D001321A7047E7A2
:10483000002A03DD392BEED00133C7E7089A0A9925
:1048400002F8013C8A422AD0594600230A2228460F
:1048500000F000F9B04583464FF000034FF00A0224
:104860004146284607D100F0F5F880460646089BE9
:104870000133089375E700F0EDF8314680460023D8
:104880000A22284600F0E6F80646F0E7B9F1000FE4
:10489000CCBF4F4601274FF00008039A17445946F2
:1048A00001222846089300F081FA2146834600F051
:1048B000EDFA0028B2DC02D1089BDB07AED43B4600
:1048C0001F4613F8012D302AFAD0F9E6039A9A42CE
:1048D000A5D131230AF1010A79E7144BFFF7A8BAF1
:1048E000269B002B7FF481AA114BFFF7A1BAB9F1E7
:1048F000000F03DC229B022B3FF7CBAE039F214628
:104900005846FFF79BF9039A00F1300307F8013B83
:10491000BA1A9145BADD594600230A22284600F00A
:1049200099F88346EBE700BFA3650008DC63000845
:1049300001650008014B1868704700BF1400002093
:104940000048704768010020024B0146186800F0DB
:104950001DBC00BF14000020034610B5C9B20244BC
:104960009342184601D1002003E0047801338C42C1
:10497000F6D110BD0A44914200F1FF3300D17047D7
:1049800010B511F8014B914203F8014FF9D110BD58
:1049900070B5466A04460D4676B91020FFF7D4FF7D
:1049A0000246606220B96621174B184800F0CEFD20
:1049B000C0E901660660C660666AF36883B1636A2F
:1049C000DB6853F82500B8B9012101FA05F6721D1C
:1049D0002046920000F05EFB60B1C0E901560EE097
:1049E00021220421204600F055FB636AF060DB6859
:1049F000002BE4D1002070BD026843F8252000237D
:104A0000C0E90333F7E700BF0E650008B46500088E
:104A100070B5466A05460C4676B91020FFF794FF3C
:104A20000246686220B98A21084B094800F08EFDD1
:104A3000C0E901660660C6603CB16B6A6268DB680B
:104A400053F82210216043F8224070BD0E65000823
:104A5000B46500082DE9F04107460C461E460020CB
:104A60000D6901F1140CDCF80030013099B202FB41
:104A700001611E0C0B0C02FB063389B201EB0341F2
:104A800085424FEA13464CF8041BECDC0EB3A368D6
:104A9000AB4219DC616838460131FFF779FF804687
:104AA00028B90246B5210C4B0C4800F04FFD226995
:104AB00004F10C01023292000C30FFF75BFF21463B
:104AC0003846FFF7A5FF444604EB850301355E61D8
:104AD00025612046BDE8F081A3650008B4650008A3
:104AE000020C12040346CAB90304102013F07F4FCE
:104AF00004BF1B02083013F0704F04BF1B010430C9
:104B000013F0404F04BF9B000230002B05DB13F075
:104B1000804F00F1010008BF202070470020E5E72A
:104B20000368024613F007000BD0D90721D4980779
:104B300049BF5B089B08012013605CBF0220136023
:104B4000704799B209B910201B0CD9B209B90830C5
:104B50001B0A190704BF1B090430990704BF9B08EF
:104B60000230D90703D45B0800F1010003D01360C1
:104B700070470020704720207047000010B50C4699
:104B80000121FFF705FF024628B94FF4A071044B3D
:104B9000044800F0DBFC01234461036110BD00BF49
:104BA000A3650008B46500082DE9F04F91460A6935
:104BB000D9F810300C469A42BEBF0B464C46994677
:104BC0002769D9F810A0A368616807EB0A06B34209
:104BD00085B0B8BF0131FFF7DBFE30B9024640F2C5
:104BE0005D11434B434800F0B1FC00F114052B4626
:104BF000002205EB8608434521D304F1140303EB9F
:104C0000870709F1140303EB8A0202923A1B153A53
:104C100022F00302043204F115018F4238BF04224E
:104C20000192029A03939A420CD8002E03DD58F8A1
:104C3000043D002B59D0066105B0BDE8F08F43F864
:104C4000042BD8E7B3F800A0BAF1000F23D0A9468F
:104C50004FF0000C04F1140E5EF8042BD9F800108C
:104C60001FFA82FB89B20AFB0B116144D9F800C01C
:104C7000120C4FEA1C4C0AFB02C202EB114289B231
:104C800041EA024177454FEA124C49F8041BE3D848
:104C9000019A45F802C0039A0433B2F80290B9F1C0
:104CA000000F20D0AE464FF0000A296804F1140C22
:104CB000BCF800B0BEF8022089B209FB0B22924476
:104CC00041EA0A414EF8041B5CF8042BBEF80010C0
:104CD000120C09FB0211674501EB1A414FEA114A18
:104CE000E6D8019AA95004359BE7013E9DE700BF35
:104CF000A3650008B46500082DE9F843154612F0D5
:104D0000030206460F4607D0254C013A002354F80B
:104D10002220FFF79FFE0746AD103DD0746A7CB994
:104D20001020FFF711FE0246706228B94FF4D771C8
:104D30001C4B1D4800F00AFCC0E901440460C4603B
:104D4000D6F82480D8F808404CB940F2712130469A
:104D5000FFF714FF00230446C8F8080003604FF073
:104D60000009EB070AD5394622463046FFF71CFFFB
:104D7000804639463046FFF74BFE47466D100BD054
:104D8000206838B9224621463046FFF70DFF2060E3
:104D9000C0F800900446E4E73846BDE8F88300BF59
:104DA000286700080E650008B46500082DE9F04783
:104DB0000C46074691462369496803EB6218A368CD
:104DC0004FEA621A08F10106B3420BDB3846FFF7DF
:104DD000DFFD054648B9024640F2D911294B2A4861
:104DE00000F0B4FB01315B00EEE7002300F1140199
:104DF00000F110021846534537DB20692AEAEA7AA7
:104E000004F1140319F01F0901EB8A0103EB800080
:104E10002FD08A464FF0000CC9F1200E1A6802FA12
:104E200009F242EA0C024AF8042B53F8042B984288
:104E300022FA0EFCF2D8031B153B23F003030433C4
:104E400004F11502904238BF042341F803C0BCF1BD
:104E5000000F01D008F10206013E384621462E61BE
:104E6000FFF7D6FD2846BDE8F08742F8040F01336E
:104E7000C1E7043953F8042B984241F8042FF9D8BC
:104E8000EAE700BFA3650008B465000803460A69A5
:104E9000006930B5801A0DD11433143103EB82044C
:104EA00001EB820154F8045D51F8042D954202D0C3
:104EB00004D3012030BDA342F4D3FBE74FF0FF3011
:104EC000F8E700002DE9F84F0D4607461146284641
:104ED0001446FFF7DBFF061E11D131463846FFF7B7
:104EE00057FD024628B940F232213A4B3A4800F0C9
:104EF0002DFB0123C0E904361046BDE8F88FA4BF9E
:104F000023462C4638466168A6BF1D46002601266A
:104F1000FFF73EFD024618B94FF410712D4BE5E73F
:104F200002F11408C2464FF0000C2769C6602E69D2
:104F300004F1140005F1140900EB870E09EB860655
:104F4000103454F804BF59F8043B1FFA8BF18C4419
:104F500099B21B0CACEB0101C3EB1B4303EB2143E8
:104F600089B24FEA234C4E4541EA03434AF8043BD9
:104F7000E7D8731B153B23F0030315350433AE420A
:104F800038BF0423184443441E46054675450ED3D6
:104F90000EF10301091A21F003010338864538BFD9
:104FA0000021194451F8043D8BB11761A4E755F86D
:104FB000048B1FFA88F161440C1404EB184489B285
:104FC00041EA04414FEA244C46F8041BDEE7013F66
:104FD000E8E700BFA3650008B46500082DE9F341C8
:104FE0000121DDE9087690461D46FFF7D1FC044615
:104FF00030B9024640F20A31244B254800F0A6FAA7
:10500000C5F31303C5F30A552DBB0193B8F1000393
:1050100026D068460093FFF783FD0099F0B1019A0E
:10502000C0F1200302FA03F30B43C2406361019213
:10503000019B002B14BF02210121A3612161C5B195
:10504000A5F233450544C0F135003D60306020468F
:1050500002B0BDE8F08143F48013D6E76161E7E771
:1050600001A8FFF75DFD0121019B216163612030F3
:10507000E5E704EB8103A0F2324038601869FFF7DE
:105080002FFDC0EB41113160E1E700BFA3650008CF
:10509000B465000870B5A1FB025434B9294600F08C
:1050A00075F8064628B9304670BD0C22002602600D
:1050B000F9E72A462146FEF799F8F4E738B50546A0
:1050C000002940D051F8043C0C1F002BB8BFE41855
:1050D00000F098FA1C4A136833B9636014602846DC
:1050E000BDE8384000F094BAA34208D920682118DE
:1050F0008B4201BF19685B6809182160EDE71A4609
:105100005B680BB1A342FAD911685018A0420BD1C9
:1051100020680144501883421160E0D118685B6830
:10512000014411605360DAE702D90C232B60D6E703
:10513000206821188B4201BF19685B68091821603B
:1051400063605460CBE738BD8003002070B50E4E1D
:105150000C463168054611B900F0E8F93060214687
:10516000284600F0E3F9431C0AD0C41C24F00304D1
:10517000A04207D0211A284600F0D8F9013001D109
:105180004FF0FF34204670BD840300202DE9F0412C
:10519000CD1C25F0030508350C2D38BF0C25002D3E
:1051A000074601DBA94205D90C2300263B603046A7
:1051B000BDE8F0812E4E00F025FA33681C4634BB62
:1051C00029463846FFF7C2FF431C04464DD13468D8
:1051D0002646002E40D123683146384604EB0308AA
:1051E00000F0A4F980453AD1216803356D1A25F005
:1051F000030508350C2D38BF0C2538462946FFF726
:10520000A5FF01302BD023682B4423600EE02268D9
:10521000521B1ED40B2A16D96119A342256018BF50
:105220005960636808BF316062514B60384604F1D1
:105230000B0600F0EDF926F00706231DF21AB6D092
:105240009B1BA350B3E76268A3420CBF32605A6055
:10525000ECE723466468B2E734467668B9E70C2386
:1052600038463B6000F0D4F9A1E72560DEE700BFD7
:10527000800300202DE9F0478E6882469E420C464E
:1052800090461F4638D88A8912F4906F32D025682C
:1052900009690133A5EB010965694B4405EB450537
:1052A00005EBD5756D109D4238BF1D46530531D5B0
:1052B0002946FFF76BFF064650B90C234FF0FF302D
:1052C000CAF80030A38943F04003A381BDE8F0870A
:1052D0004A462169FFF74EFBA38923F4906343F00C
:1052E0008003A38126614E4426603E466561A5EB9E
:1052F0000905A560BE4200D93E46324641462068B7
:1053000000F066F9A36800209B1BA3602368334468
:105310002360DBE72A4600F081F906460028E1D148
:1053200050462169FFF7CAFEC7E700002DE9F04F9C
:1053300098468B8907461B060D4614469DB00ED530
:105340000B6963B94021FFF721FF2860286120B96C
:105350000C233B604FF0FF30D1E040236B61002312
:10536000099320238DF8293030234FF00109CDF81F
:105370000C80DFF8A4818DF82A3023469A4613F872
:10538000012B0AB1252AF9D1BAEB040B0BD05B46ED
:10539000224629463846FFF76DFF013000F0AA800B
:1053A000099A5A4409929AF80030002B00F0A28022
:1053B00000234FF0FF32CDE905230AF1010A0493DF
:1053C00007938DF853301A935446052214F8011BA5
:1053D0005148FFF7C1FA049AD8B9D00644BF202338
:1053E0008DF85330110744BF2B238DF853309AF8B2
:1053F00000302A2B15D0544600204FF00A0C079A93
:10540000214611F8013B303B092B4ED9B0B1079230
:1054100014E0A0EB080309FA03F31343A246049334
:10542000D2E7039B191D1B680391002BBBBF5B4296
:1054300042F0020207930793B8BF049223782E2B01
:105440000CD163782A2B35D1039B02341A1D1B68BB
:105450000392002BB8BF4FF0FF330593DFF8BCA0D9
:10546000032250462178FFF777FA40B14023A0EBA2
:105470000A0003FA00F0049B01340343049314F878
:10548000011B062226488DF82810FFF765FA002830
:1054900038D0244B1BBB039B073323F0070308338F
:1054A0000393099B3344099367E70C4601200CFBE7
:1054B0000232A5E700234FF00A0C19460134059388
:1054C000204610F8012B303A092A03D9002BC5D009
:1054D0000591C3E7044601230CFB0121F0E703AB70
:1054E00000932A463846104B04A9FDF725FF421CBD
:1054F0000646D6D1AB895B063FF52CAF09981DB0A7
:10550000BDE8F08F03AB00932A463846064B04A94A
:10551000FEF7AEF9EBE700BF346700083A67000812
:105520003E670008393300087552000838B500237B
:10553000054D044608462B6000F018FE431C02D1BE
:105540002B6803B1236038BD880300201FB51446C3
:105550001A46094B05461B68D8684CB1074BCDE984
:10556000013400912B46064900F00EF800F0AAFA2B
:10557000044B1C46F3E700BF1400002045670008F9
:1055800052670008806700080EB403B5014603ABFC
:10559000054853F8042B0068019300F095F802B019
:1055A0005DF804EB03B070471400002082B001B92D
:1055B00001A942B14BB113780B601278101E18BFCD
:1055C000012002B070471046FBE76FF00100F8E7DA
:1055D000884210B501EB020402D98442234607D861
:1055E000431EA14208D011F8012B03F8012FF8E760
:1055F000014602448A4200D110BD13F8014D02F861
:10560000014DF7E7014800F019BC00BF8C030020F2
:10561000014800F014BC00BF8C0300202DE9F041CC
:10562000804614460E4621B91146BDE8F041FFF709
:10563000ADBD2AB9FFF742FD25462846BDE8F081F9
:1056400000F064FC8442074602D8B4EB500F12D835
:1056500021464046FFF79AFD05460028EDD0BC42A2
:105660002246314628BF3A46FFF784F93146404684
:10567000FFF724FDE1E73546DFE7936810B4013B0F
:10568000002B936007DA9469A34201DB0A2902D157
:1056900010BC00F049B91368581C10601970084616
:1056A00010BC7047F8B506460F461446D518AC42F4
:1056B00001D1002007E03A46304614F8011BFFF7FD
:1056C000DCFF431CF3D1F8BD2DE9F04F0D46144625
:1056D000984606469DB018B183690BB900F010FBDF
:1056E000894B9D421BD175686B6ED90705D4AB8978
:1056F0009A0502D4A86D00F0A1FBAB891B0701D568
:105700002B69EBB92946304600F06EF9C0B16B6EDB
:10571000DC070ED54FF0FF301DB0BDE8F08F7B4B9E
:105720009D4201D1B568DFE7794B9D4208BFF5681E
:10573000DAE7AB899805EDD4A86D00F080FBE9E7C6
:105740000023099320238DF8293030234FF00109DD
:10575000CDF80C80DFF8BC818DF82A3023469A46BC
:1057600013F8012B0AB1252AF9D1BAEB040B0BD09F
:105770005B46224629463046FFF794FF013000F091
:10578000AA80099A5A4409929AF80030002B00F036
:10579000A28000234FF0FF32CDE905230AF1010A70
:1057A000049307938DF853301A935446052214F846
:1057B000011B5848FFF7D0F8049AD8B9D10644BF66
:1057C00020238DF85330130744BF2B238DF853301B
:1057D0009AF800302A2B15D0544600204FF00A0CBE
:1057E000079A214611F8013B303B092B4ED9B0B145
:1057F000079214E0A0EB080309FA03F31343A2464F
:105800000493D2E7039B191D1B680391002BBBBFB8
:105810005B4242F0020207930793B8BF04922378D9
:105820002E2B0CD163782A2B35D1039B02341A1D01
:105830001B680392002BB8BF4FF0FF330593DFF8CE
:10584000D8A0032250462178FFF786F840B14023C4
:10585000A0EB0A0003FA00F0049B01340343049315
:1058600014F8011B06222D488DF82810FFF774F854
:1058700000283FD02A4B1BBB039B073323F00703B1
:1058800008330393099B3B44099367E70C460120C7
:105890000CFB0232A5E700234FF00A0C1946013435
:1058A0000593204610F8012B303A092A03D9002B22
:1058B000C5D00591C3E7044601230CFB0121F0E7A5
:1058C00003AB00932A463046164B04A9FDF734FD7E
:1058D0000746781CD6D16B6ED90705D4AB899A05DB
:1058E00002D4A86D00F0ABFAAB895B063FF512AFAE
:1058F000099811E703AB00932A463046094B04A9E7
:10590000FDF7B6FFE4E700BFAC670008CC6700080E
:105910008C670008346700083A6700083E67000893
:1059200039330008A5560008F8B50E46144605465A
:1059300018B183690BB900F0E3F9214B9C422BD1DC
:105940006C68A369A360A3891A072FD523696BB379
:1059500023692068F6B2C01A63693746834204DCC3
:105960002146284600F038F930BBA3680130013BDE
:10597000A36023685A1C22601E706369834204D0AE
:10598000A389DB0706D50A2E04D12146284600F05C
:1059900023F988B93846F8BD0A4B9C4201D1AC685E
:1059A000CFE7094B9C4208BFEC68CAE7214628466E
:1059B00000F01AF80028CBD04FF0FF37EAE700BF1D
:1059C000AC670008CC6700088C67000803460846EF
:1059D00041B1FF2A04D98A224FF0FF301A60704784
:1059E00001200A7070470000324B70B51D680646F2
:1059F0000C4625B1AB6913B9284600F081F92E4B4E
:105A00009C420FD16C68A389B4F90C2019072CD4DF
:105A1000DD0611D40923336042F040034FF0FF301C
:105A2000A3813EE0254B9C4201D1AC68EBE7244BBF
:105A30009C4208BFEC68E6E7580712D5616B41B19C
:105A400004F14403994202D03046FFF737FB0023AC
:105A50006363A38923F02403A38100236360236984
:105A60002360A38943F00803A38123694BB9A38969
:105A700003F42073B3F5007F03D02146304600F0D5
:105A800005FAA089B4F90C2010F001030AD0002314
:105A9000A36063695B42A361236943B910F080008E
:105AA000BAD170BD810758BF6369A360F4E70020D5
:105AB000F7E700BF14000020AC670008CC670008BF
:105AC0008C670008062008B500F050FA012000F0AD
:105AD00063FB00008A89F8B5054610070C4657D4C9
